:020000040800F2
:1000000018690020E9020008DF2B00089D010008A4
:10001000DD2B00082D130008E35E0008000000003F
:100020000000000000000000000000001D020008A9
:10003000C51800080000000095020008D102000861
:10004000A96000081D2D0008030300080303000831
:100050000520000845310008AD1D0008E91D000815
:10006000EF1D0008F51D0008FB1D00088F15000896
:10007000971500089B150008A5150008BD15000878
:10008000D5150008ED150008450F0008030300080A
:10009000030300080303000803030008011E00080F
:1000A0000303000803030008030300080303000818
:1000B0008D3900080303000803030008F328000833
:1000C000F1280008F7280008F52800088734000800
:1000D00089340008D13F0008E53F0008F93F0008D7
:1000E000B31D0008C9180008B54000080000000052
:1000F0000000000000000000000000000000000000
:1001000000000000D13100080303000800000000D7
:10011000CD3F0008CF3F00080000000000000000B5
:100120000516000807160008091600080B16000837
:1001300000000000000000000000000000000000BF
:10014000000000000000000000000000A9400008BE
:100150000000000000000000030300080303000883
:100160000303000800000000000000000303000873
:10017000DFF824D000F00EFDAFF3008002F07EFD2A
:100180000CF016FD002103480CF05EFE0CF022FD81
:10019000FEE70000BC600108186900201EF0040F93
:1001A0000CBFEFF30880EFF309804FF0000109F076
:1001B00075BD000080F309887047EFF30980704730
:1001C000684680F3098804480078C00714BF0220FD
:1001D000032080F314887047A8600108DFF818C076
:1001E000EFF305831B0618BF6047EFF31483DB07AB
:1001F00008BF604700DF7047FBFF0008DFF818C04A
:10020000EFF305831B0618BF6047EFF31483DB078A
:1002100008BF604700DF704779020108EFF30980EB
:10022000816911F8021CF1B990E80F10E047EFF373
:10023000098C8CE80700144B93E8060091420FD01C
:1002400039B12CE9F00FC1F828C00CB410F012FC41
:100250000CBC1A60D2F828C0BCE8F00F8CF30988F7
:100260006FF0020E704710B5084A1268914209D823
:10027000074C54F8214090E80F10A047EFF3098C89
:100280008CE80F0010BD000044090020400F00085A
:10029000400F000810F094FA0C4B93E806009142CE
:1002A00010D0EFF3098C2CE9F00FC1F828C00CB482
:1002B00010F0E0FB0CBC1A60D2F828C0BCE8F00FCC
:1002C0008CF309886FF0020E70470000440900208B
:1002D0000CF09CFF10F088FCDEE700000CF096FFAD
:1002E00010F082FCD8E70000064880470648004727
:1002F000FEE7FEE7FEE7FEE7FEE7FEE7FEE7FEE7D6
:10030000FEE7FEE795370008710100082DE9F05F70
:100310000546002092469B46884606468146402474
:100320001BE0284641464746224600F059FB53460B
:100330005A46C01A914110D311461846224600F081
:1003400016F82D1A67EB01084F46224601200021BE
:1003500000F00DF817EB00094E41201EA4F1010436
:10036000DFDC484631462A464346BDE8F09F202A56
:1003700004DB203A00FA02F1002070479140C2F1FC
:10038000200320FA03F31943904070470048704758
:100390002090010810B50446FFF7F8FF0068005DE3
:1003A00000F0010010BD00000649074A08685043EC
:1003B00043F2390210440860400870470149086060
:1003C00070470000F80B00206D4EC64140EA010363
:1003D0009B0703D009E008C9121F08C0042AFAD2FB
:1003E00003E011F8013B00F8013B521EF9D27047BF
:1003F000D2B201E000F8012B491EFBD27047002267
:10040000F6E710B513460A4604461946FFF7F0FF13
:10041000204610BD421E12F8013F002BFBD111F8FF
:10042000013B02F8013B002BF9D1704730B505467E
:100430002A460B4612F8010B13F8014B08B1A042F3
:10044000F8D01CB1002802D06D1CF1E7284630BD61
:1004500010B5044604E00B7800F8013B03B1491CD9
:10046000521EF8D2204610BD421C10F8011B002974
:10047000FBD1801A704730B504460020034600E0E7
:100480005B1C934203D2E05CCD5C401BF8D030BDD6
:10049000034611F8012B00F8012B002AF9D1184668
:1004A000704700000FB400B58DB010A909900B90F3
:1004B00000914FF0FF300A9000200C900548069004
:1004C000054807906A4609A80F9900F0BFFA0DB0D9
:1004D0005DF814FB690A0008870A00082DE9FF5F30
:1004E0001D464FF0FF3BD5E9014691465F464FF070
:1004F0000008A9697F1C01988847296A82468847B5
:100500000028F6D1BAF1FF3F0CD024F4C064002ECD
:1005100019DD600614D5BAF12B0F09D0BAF12D0FF1
:100520000ED103E0584604B0BDE8F09F44F4806467
:10053000A9697F1C01988847761E8246002E02DD3D
:10054000BAF1300F03D0B9F1000F26D032E0A9691B
:10055000761E44F400747F1C019888478246002E62
:1005600005DDBAF1780F06D0BAF1580F03D0B9F112
:10057000000F10D01EE0B9F1000F02D0B9F1100F3A
:1005800018D1A969761E24F400747F1C019888474D
:100590008246102002E0082000E00A20814609E09F
:1005A00008FB0908A969761E44F400747F1C0198B1
:1005B00088478246002E05DD4946504600F032FA53
:1005C0000028EDDAE96901988847A00502D46FF0A8
:1005D0000100A8E7E00725D1600613D5600502D524
:1005E000C8F1000000E0404629680A1D2A60096839
:1005F000220501D5087015E0220701D5088011E019
:1006000008600FE02868011D29600068210502D5F7
:1006100080F8008006E0210702D5A0F8008001E004
:10062000C0F8008038467EE72DE9FE4F804681EA1B
:100630000300C00F0C46009021F0004123F000455C
:10064000B8EB0200A94105D24046214690461C461F
:100650000B46024623F00040104347D0270DC7F356
:100660000A00C3F30A510290401A019040286BDA45
:10067000C3F3130040F4801B0098924620B100237E
:10068000D2EB030A63EB0B0B01985946C0F1400211
:100690005046FFF76CFE06460D4650465946019AF5
:1006A00000F0AEF910EB08006141002487EA115216
:1006B00084EAE7731A4340D0009A62B3019A012A90
:1006C0004FEA075215DC001B61EB02014FF00042BC
:1006D00002EA0752CDE90042001C41F58011324682
:1006E0002B4600F0F0F903B0BDE8F08F40462146FC
:1006F000F9E7001B61EB0201001C41F580130018B3
:100700005B412018A2F5001747EB030140EAD570C2
:10071000B6196D4111E06D084FEA360645EAC0751D
:100720004FEA0752001B61EB0201001C41F58011EA
:1007300049084FEA30000019514132462B4603B0B8
:10074000BDE8F04F00F0B0B900980122400000234E
:10075000D0EB020263EBE073009821464FEAE074AD
:10076000B8EB000061EB0401E9E783F000435BE7CD
:1007700081F0004158E72DE9FE4F81EA030404F0BF
:10078000004421F0004100944FF0000B23F000439F
:1007900050EA01045ED052EA03045BD0C3F30A546A
:1007A000C1F30A552C44A4F2F3340194A0FB025483
:1007B000C1F3130141F48011C3F3130343F4801315
:1007C00001FB024400FB034E840A970A44EA815469
:1007D00047EA8357A4FB076802958D0A05FB078546
:1007E0004FEA932C04FB0C542705029D4FEA065850
:1007F00047EA1637B5EB08056EEB070C870E920E2D
:1008000047EA811742EA8312A7FB0201B6EB0B010C
:1008100064EB00042B0D43EA0C335E1844EB1C50D0
:10082000DA465146E7FB0201C5F313044FEA0B33E6
:1008300043EA14534FEA0432019C43EA0603A4F14D
:100840000C040294009CCDE900B400F03CF903B024
:10085000BDE8F08F00200146F9E72DE9F04D81EA6F
:10086000030404F0004B21F0004514464FF0000A49
:1008700023F0004150EA050220D054EA01021DD0C5
:10088000C5F30A570246C5F31303C1F31300C1F3BE
:100890000A5640F4801543F48013A7EB0608101B9A
:1008A000D64608F2FD3873EB050002D308F10108C3
:1008B00001E092185B41B8F1000F03DA0020014615
:1008C000BDE8F08D00204FF48011064684460EE00E
:1008D000171B73EB050705D3121B63EB05030643D8
:1008E0004CEA010C49084FEA300092185B4150EA8B
:1008F0000107EDD152EA030012D082EA040083EA34
:100900000501084305D0101BAB4106D2012200238C
:1009100006E000224FF0004302E06FF001025310A6
:100920001AEB06004CEB085110EB0A0041EB0B01EF
:10093000BDE8F04D00F0B8B80EB540F23341029179
:100940000021CDE900110A460B4600F0BCF803B0C7
:1009500000BDC1F30A5210B5C1F3130140F2FF33D9
:1009600041F480119A4201DA002010BD40F2334375
:100970009A42A2F2334203DC524200F031F810BD39
:10098000904010BD30B5041E71F1000404DB4FF03F
:100990000044404264EB0101141E73F1000405DBC6
:1009A0001C464FF00043524263EB0403994208BFD8
:1009B000904230BD30B50B46014600202022012474
:1009C00009E021FA02F59D4205D303FA02F5491B1D
:1009D00004FA02F52844151EA2F10102F1DC30BD33
:1009E000202A04DB203A21FA02F00021704721FA84
:1009F00002F3D040C2F120029140084319467047EB
:100A0000202A06DBCB17203A41FA02F043EAE073D2
:100A100006E041FA02F3D040C2F1200291400843BF
:100A2000194670473A2800D2303820F02002412A77
:100A300001D3A2F13700884201D34FF0FF30704755
:100A4000026811441378016018467047D160044968
:100A500051610449116200211161114600F0ACB8E6
:100A6000410A000895030008426842B1016811F884
:100A7000013B23B1521EC0E9001218467047012104
:100A8000C160881E704742685AB1C368016843B9A3
:100A900083688B4205D0491E521CC0E90012002019
:100AA00070474FF0FF30704710B5141E73F100040B
:100AB00008DA401C41F1000192185B411A4301D150
:100AC00020F0010010BD2DE9F04D92469B4611B17A
:100AD000B1FA81F202E0B0FA80F220329046FFF7DC
:100AE00046FC04460F4640EA0A0041EA0B01534621
:100AF0005A46084313D0114653EA010019D0C8F1F1
:100B000040025046FFF76CFF05460E4650465946D8
:100B10004246FFF72CFC084305D0012004E02046A4
:100B20003946BDE8F08D0020054346EAE0762C43C7
:100B300037430A986305E40AA0EB08000022FD0A87
:100B400044EA47540A3002D500200146E9E701058E
:100B500010196941DDE9084500196941BDE8F04D0A
:100B6000A2E7C1F30A52C1F3130140F2FF3341F48B
:100B700080119A4202DA00200146704740F2334366
:100B80009A42A2F2334202DC5242FFF729BFFFF73A
:100B9000EEBB0000064C074D06E0E06840F00103A4
:100BA00094E8070098471034AC42F6D3FFF7E4FA14
:100BB00008980108289801082DE9F34F8BB04FF0F1
:100BC000000801F10C000C464FF0010B46460DF1F8
:100BD000080A01906269012101989047051E2DD0F5
:100BE000252D2CD0216A8847C0B162690121019866
:100BF0009047216A88470028F7D1411E6269019811
:100C0000904700E0761CA1690B988847216A8847C5
:100C10000028F7D1E1690B988847DBE7A1690B98B9
:100C200088470746A84201D1761CD3E7E1690B98B3
:100C300088477F1C02D1B8F1000F6FD047E1002731
:100C400062693D463946019890472A2804D1626975
:100C50000121019890470125DFF8889262690121FE
:100C600001989047A0F130010A290AD24F45E5DCEE
:100C700007EB870100EB4107303FDFD445F010055B
:100C8000ECE7E90601D46FF000476C280AD04C2845
:100C900014D0682815D06A280DD074281CD07A2862
:100CA0001AD01DE062690121019890476C2802D09A
:100CB00045F0040514E045F002050DE045F020057F
:100CC0000AE06269012101989047682802D045F046
:100CD000080505E045F40065626901210198904727
:100CE000C4E9015765283DD019DC58287AD00CDCBE
:100CF000452837D004DC252826D0412831D131E0E1
:100D000046282FD047282CD12CE05B2877D06128AB
:100D100028D063287CD0642823D15AE0D1E06F2802
:100D200048D008DC66281DD067281BD0692821D050
:100D30006E2816D127E0702845D0732868D0752812
:100D400047D078280DD14DE0A1690B98884705461A
:100D500025283FF469AFE1690B9888476D1C3FF483
:100D60006AAFB4E023466A466FF001000B99AFF317
:100D700000809FE045F040006060A80723464FF0E8
:100D8000000236D43EE0E8077FF447AF2068011D3B
:100D900021600068290501D506701BE7290701D5E8
:100DA000068017E7A90703D5F117C0E9006111E72D
:100DB00006600FE745F040006060A80723464FF04B
:100DC000080216D41EE040F60E0125EA010060601C
:100DD00016E045F040006060A80723464FF00A0285
:100DE00007D40FE045F040006060A80708D523460F
:100DF00010226FF001000B99AFF300805AE007E07A
:100E0000234610226FF001000B99FFF767FB51E0BA
:100E10004FF000094F464B46632802D05B2807D0AD
:100E200041E02079C00601D40120A06001273AE00A
:100E300062690121019890475E2805D14FF00109B0
:100E40006269494601989047216939B900210A46EB
:100E5000534643F82120491C0829FADBB0B3216925
:100E600069B9C11700EBD16253110AEB830122F07B
:100E70001F02821A01200B68904003430B606269D5
:100E80000121019890475D28E8D1B9F1000F09D000
:100E90000020514651F82020D24341F82020401C28
:100EA0000828F7DB02AB224600976FF001000B9990
:100EB000AFF3008000280CDA401C08D1BBF1000F12
:100EC00005D04FF0FF300DB0BDE8F08FFFE7404692
:100ED000F9E7E90701D108F1010806444FF0000BDA
:100EE00078E60000CCCCCC0C70B58C1810F8015B07
:100EF00015F0070301D110F8013B2A1106D110F8B3
:100F0000012B03E010F8016B01F8016B5B1EF9D1B6
:100F10002B0705D40023521E0DD401F8013BFAE73C
:100F200010F8013BCB1A921C03E013F8015B01F8A7
:100F3000015B521EF9D5A142D8D3002070BD00003C
:100F400000000000704700002DE9F843804600785B
:100F500000EB400101EB0010C4B204F11300C7B272
:100F60005D2F00D95D271F48B0F81910ADF80010AB
:100F7000C07E8DF8020000980EF088FC19490646E4
:100F800018319DF80000097908448DF80000009898
:100F90000EF07CFC0546DFF8509019E009EB0400E8
:100FA00098F8011090F81A0108420FD0C00705D038
:100FB000C5F30743EAB2C5F3072104E0C6F30743CC
:100FC000F2B2C6F3072120460EF07AFD641CE4B2AB
:100FD000BC42E3D35D2F02D20120BDE8F88300209C
:100FE000FBE70000400A002054820108014908F094
:100FF00069B90000F90F00081FB51C46104606F03D
:101000006DFBA0EB80019DF80100021B1144C9B2E9
:1010100011FB00F0000A8DF80100BDF800009DF8FA
:10102000021004B040EA014010BD0000014908F080
:1010300049B90000391000081FB51C46104606F0DB
:101040004DFBA0EB80019DF80200021B1144C9B2C8
:1010500011FB00F0010ABDF8000004B040EA0140B5
:1010600010BD0000014908F0D5B90000711000085A
:1010700007B5114800EB4100E42190F8600010FB37
:1010800001F0C2EB10209DF801101C3000D5404249
:10109000404201EBC00000B2002800DA0020C0B2DC
:1010A00010FB01F0000A8DF80100BDF800009DF86A
:1010B000021040EA01400EBD54820108014908F0C7
:1010C0004FB90000C91000087FB51C461046089DA6
:1010D00006F004FB9DF801100A19521B101AC0B249
:1010E00010FB01F0000A8DF80100BDF800009DF82A
:1010F000021004B040EA014070BD0000014908F050
:101100002FB90000091100087FB51C461046089D44
:1011100006F0E4FA9DF802100A19521B101AC0B228
:1011200010FB01F0010ABDF8000004B040EA0140E4
:1011300070BD0000014908F06DB9000041110008C0
:1011400007B50F4800EB4100E42190F8600010FB68
:1011500001F0C2EB10209DF802101C3000D5404277
:10116000404201EBC00000B2002800DA0020C0B20B
:1011700010FB01F0010ABDF8000040EA01400EBD7D
:10118000548201082DE9F84F0646007800EB400133
:1011900001EB0010C4B204F11300C5B25D2D00D9FB
:1011A0005D251E48B0F81910ADF800101B49C77E28
:1011B0001831008A0979C9084843C0F3072010F0A4
:1011C0009FFF803840B205F059FC4006000E10FB2E
:1011D00007F0000A8DF8020000980EF057FB104F40
:1011E000C0F3072A00F0FF09C0F307480DE03819E3
:1011F000717890F81A01084205D043464A46514694
:1012000020460EF05DFC641CE4B2AC42EFD35D2DD1
:1012100002D20120BDE8F88F0020FBE7400A002041
:101220005482010802480121417181717047000018
:101230001452002010B5012140F2BD2001F082FEC1
:101240000121054801F066FE00F008F80121BDE823
:101250001040480601F034B800080010F8B502202C
:101260008DF8020010208DF80300284E0425ADF8FB
:1012700000506946304600F01BFF254901240C62EE
:101280000020C1F88801ADF80050224D694628467B
:1012900000F00EFF20480462C0F88841A002ADF8BB
:1012A000000069461D4800F003FF1D4840F8A04FAC
:1012B000C0F808411B4800230322016821F4804143
:1012C00001600821284600F0D5FF002303220721F2
:1012D000284600F0CFFF002303220621284600F015
:1012E000C9FF002303220A21304600F0C3FF0E4C41
:1012F000002303220521204600F0BCFF0023032227
:101300000421204600F0B6FFF8BD0000000C0140AB
:1013100000802142001001400000224200080140EC
:1013200000002142AC0A0020001C0140FEE7000042
:10133000014908F06FB800003D13000807B58DF8AB
:101340000020BDF800009DF8021040EA01400EBDEB
:10135000014908F05FB800005D13000807B50748B1
:1013600000EB410090F86000801A8DF80000BDF895
:1013700000009DF8021040EA01400EBD54820108B1
:10138000014907F0EDBF0000D1130008014907F043
:1013900099BF0000991300087FB51D46144648B256
:1013A00005F06CFBC0F1380010FB00F014FB0400EA
:1013B00080B210F063FF00EB400028448DF800007D
:1013C000BDF800009DF8021004B040EA014070BD75
:1013D0000FB503EB4301059800EB51008DF80000B9
:1013E000BDF800009DF8021004B040EA014000BDC5
:1013F000014907F067BF0000FD1300081FB51C4638
:10140000104606F06BF920448DF80000BDF800008E
:101410009DF8021004B040EA014010BD014907F0F8
:101420009FBF0000291400087FB51C461046089D88
:1014300006F054F9611B081A8DF80000BDF8000091
:101440009DF8021004B040EA014070BD014907F068
:10145000E1BF00005914000807B5074800EB410040
:1014600090F86100801A8DF80000BDF800009DF82A
:10147000021040EA01400EBD548201082DE9FC47EC
:1014800080783F4C4FF0000950B1002211461046C1
:101490000EF01EFB60213B48FEF7B1FF84F806907A
:1014A0000027384DA046FF26002498F80600204368
:1014B00008D1FEF779FF3449884203DA05EB0410BE
:1014C000C65506E005EB0411C85D401EFE2800D29B
:1014D000C8556A46394620460EF0B4FAE8B105EB25
:1014E0000410C05DD0280CD9D03800EB4000810139
:1014F0002F2091FBF0F0C1B29DF800000B46FF22B7
:1015000009E0C0EB0020D021B0FBF1F0C2B2002313
:101510009DF8000019460EF0D3FA641CE4B2062CC4
:10152000C3D37F1CFFB2102FBED398F80600401C17
:10153000C0B288F806001C281FD9052188F806903B
:10154000FE2705F15004002005EB0113052903D106
:10155000225CFF2A00D127541A1812F810CCBCF1D3
:10156000FF0F02D102F8107C1E54401CC0B210289C
:10157000ECD3491E11F0FF01E5D10020BDE8FC8746
:10158000400A0020A45E002055555505704710B54F
:10159000FFF7FCFF10BD7047704710B5FFF7FCFF69
:1015A00010BD000004480068002804D04FF4004239
:1015B000911000F033B970472400002004480068FF
:1015C000002804D04FF40022911000F0EFB87047CB
:1015D0002400002004484068002804D04FF4000292
:1015E000911000F0E3B870472400002004484068E0
:1015F000002804D04FF00062911000F00FB970473E
:101600002400002070477047704770470029016828
:1016100002D041F0010102E04FF6FE72114001607C
:1016200070470000C10002D50249086070470249B6
:10163000486070470404024000000240002101603D
:1016400041608160C160016141618161C16101628C
:10165000416281627047406880B270470246002054
:10166000D10001D5034900E003490968114200D0C7
:10167000012070470004024000000240002A026876
:1016800001D00A4300E08A430260704730B5026827
:1016900047F6F0739A430C6A8B682343D1E90445FB
:1016A0002C4323438C692343CC6923434C6A234353
:1016B0008C6A234313430360CA6842600A688260ED
:1016C0004968C16030BD000001684FF6FE721140EC
:1016D00001600021016041608160C1603149314A8F
:1016E0000839904203D1486840F00F0006E02D4AC7
:1016F0001432904204D1486840F0F00048607047CE
:10170000284A2832904203D1486840F47060F5E7D7
:10171000244A3C32904203D1486840F47040EDE7DF
:10172000204A5032904203D1486840F47020E5E7E7
:101730001C4A6432904203D1486840F47000DDE7EF
:10174000184A7832904203D1486840F07060D5E77B
:10175000154A111F904203D1086840F00F0006E0BF
:10176000114A1432904204D1086840F0F000086039
:1017700070470D4A2832904203D1086840F47060E7
:10178000F5E7094A3C32904203D1086840F47040C2
:10179000EDE7054A50329042EAD1086840F47020E3
:1017A000E5E70000080002400804024070B5044666
:1017B00015460E460846FFF751FF20B10220607023
:1017C0003046FFF72FFF2846FFF748FF20B10420DF
:1017D00060702846FFF726FF00224021606802F073
:1017E00028FC00220A21A068FFF748FF0021A0681A
:1017F000FFF70CFF002240F22441606802F028FC51
:10180000002240F22551606802F022FCA16A002902
:1018100003D0206ABDE87040084770BD70B504462B
:1018200015460E460846FFF719FF20B10220A070AA
:101830003046FFF7F7FE2846FFF710FF20B10420DF
:10184000A0702846FFF7EEFE00228021606802F0BB
:10185000F0FB00220A21E068FFF710FF0021E0689A
:10186000FFF7D4FEE16A002903D0206ABDE870408A
:10187000084770BD014907F0F7BE00008118000855
:101880000FB50F4800EB430090F86130203B13FB8D
:1018900002F290F86000703810FB01209DF80010F3
:1018A000C21700EB526001EBE0108DF80000BDF8AC
:1018B00000009DF8021004B040EA014000BD0000A5
:1018C000548201087047000010B54FF48054204640
:1018D00000F028F928B1204600F0B0F804490120B2
:1018E0000870BDE810404FF4003000F09DBA0000D1
:1018F000E808002038B50022124C0092CA2222606B
:10190000532222600F4A1C3A0029116802D0014379
:10191000116012E0814311600A4A183A9513116868
:10192000009B01EA10215B1C0093AB4201D000290F
:10193000F5D0116811EA102000D00120FF212160AC
:1019400038BD00002428004030B587B004A800F05E
:1019500041FB4FF40034204600F066FA0494002462
:101960008DF8144008208DF8150001258DF81650CB
:1019700004A800F0E5FA29208DF818008DF8194028
:101980008DF81A408DF81B5006A801F029F94FF088
:101990008030CDE901048DF800408DF801402C0223
:1019A0008DF80C508DF802506A462146012000F057
:1019B0002BF90121080300F0D5F801212046FFF79B
:1019C00099FF07B030BD000010B5094BCA241C6058
:1019D00053241C601143B0F5807F05D004482430A7
:1019E0000160FF20186010BD01482030F8E70000BA
:1019F00024280040010901EB810100F00F0000EBF9
:101A00004100C0B27047002103E0491C0A38C9B246
:101A1000C0B20A28F9D2090740EA116070470000F5
:101A200080B240F08000C1430348026802F08002A7
:101A300011430160704700000C280040C0F30F10F4
:101A400040F08000C1430348026802F08002114365
:101A5000016070470C2800401FB50121080701F004
:101A600059FA012001F05CF94FF48074204600F02F
:101A70004BF810B12046FFF7D3FF012001F064FBC3
:101A8000612001F047FB0028FAD04FF4007001F00C
:101A90007FFA012001F076FA00F058F97F200190DA
:101AA000FF20002402900094684600F07BF803A910
:101AB0000120039400F0FAF81FBD000008B50D499D
:101AC000002000900868400612D44FF0FF300860F4
:101AD0008B130868009A00F04000521C00929A4252
:101AE00001D00028F5D00868400601D4002008BDC8
:101AF000012008BD0C2800400248016821F0800147
:101B0000016070470C280040044902460020096823
:101B1000034B1940114200D0012070470C280040AF
:101B20007F7F01000D4A10B5126800210B4B02F0B7
:101B30000402383B1B6802EAD0340340234302EA24
:101B400010421343064A126802EA101003D0000440
:101B5000000C00D00121084610BD000040280040C4
:101B60000C28004030B50E4DCA222A6053222A604C
:101B70000B4C0B4B1C3C1C33002920F00402216849
:101B800000F0040004D0114321601968014303E010
:101B900091432160196881431960FF20286030BD9E
:101BA0002428004070B5124D04460026CA20286043
:101BB00053202860FFF782FFA8B10D481C38016848
:101BC00021F040010160016822681143016008486A
:101BD000A168143801600168A28841EA02410160ED
:101BE000FFF78AFF0126FF202860304670BD000005
:101BF0002428004008B5034901EB800000900068EC
:101C000008BD00005028004070B514460D46264A15
:101C10000021002810684FEA406005D000281CDA37
:101C20002078FFF7E7FE19E0002800DBE17020785C
:101C3000FFF7E9FE06046078FFF7E5FE46EA0026B6
:101C4000A078FFF7E0FE0643E07846EA0046207BF6
:101C5000FFF7D9FE46EA006010E0E170207BFFF755
:101C6000C9FEA0782178E27840EA01406178090253
:101C700041EA02410843217B40EA0160A168CA228F
:101C800008436168084308491C310A6053220A600E
:101C9000B5F5807F04D00A1F1060FF20086070BD7A
:101CA000014A1432F8E70000082800402DE9F0410D
:101CB0000C460026234F01002078396832464FEA4F
:101CC000416104D0002930DAFFF794FE2EE00029AC
:101CD00000DBE270FFF797FE05046078FFF793FEE4
:101CE00045EA0025A078FFF78EFE0543E07845EA37
:101CF0000045144CCA201C34206053202060FFF79C
:101D0000DDFE68B1104805400E4808380560FFF751
:101D1000F3FE3868800602D400F018F800B10126FE
:101D2000FF2020603046BDE8F081E270A078217885
:101D300040EA01456078E178000240EA014005434D
:101D4000D7E70000082800407F7F7F0018B50020FB
:101D5000104B0090CA201860532018600D491839A4
:101D6000086820F0A00008604FF400340868009A6A
:101D700000F02000521C0092A24201D00028F5D0B1
:101D80000868800601D5012000E00020FF211960CD
:101D900018BD00002428004008B5034A02EB80006B
:101DA0000090016008BD000050280040012000F0B4
:101DB0003BB810B54FF4806000F036F84FF4006087
:101DC00000F032F84FF4805000F02EF84FF400503D
:101DD00000F02AF84FF4804000F026F8BDE81040EB
:101DE0004FF4004000F020B8022000F01DB804209D
:101DF00000F01AB8082000F017B8102000F014B84E
:101E000010B5202000F010F8402000F00DF88020E0
:101E100000F00AF84FF4807000F006F8BDE81040BA
:101E20004FF40070AFF30080014908607047000074
:101E3000140401402DE9FE430121BD2001F082F888
:101E400000213D4C0B46012504F10802605C00EBCB
:101E5000400002EBC000466835604669356006699F
:101E6000336080680360491CC9B20629EED3334E43
:101E70000021705C00EB400002EBC000446823606E
:101E8000446923600469256080680560491CC9B203
:101E90001029EED30C208DF808308DF8090001953B
:101EA0008DF80A5000249046305D00EB400108EBAD
:101EB000C107B978787800F0E7F8B87805FA00F04B
:101EC000019001A800F03CF8641CE4B2102CEBD3A4
:101ED00006208DF800000F208DF801008DF802001B
:101EE0008DF80350684600F07BFE07208DF8000057
:101EF000684600F075FE08208DF80000684600F086
:101F00006FFE09208DF80000684600F069FE0A2087
:101F10008DF80000684600F063FE17208DF8000081
:101F2000684600F05DFE28208DF80000684600F04D
:101F300057FEBDE8FE830000DC5901088C600108F3
:101F400030B51A4A8379016853B313688B43136021
:101F5000111D0B680468A3430B60017911440B68E1
:101F6000046823430B60114B083319680468A143CC
:101F700019601C1D21680568A94321604179102959
:101F800005D011440A68006802430A6030BD196830
:101F9000026811431960216800680143216030BD67
:101FA0000079104402688A43026030BD0004014099
:101FB000064900200860091D0860091D0860091D08
:101FC000086002490248143108607047000401406B
:101FD000FFFF7F000021016001710C2242718171BD
:101FE0007047000010B5054C054A2168914201D0A8
:101FF000606910BD0EF0F0FF606110BD6009002047
:1020000055AA55AA7047000038B50121BD2000F03F
:1020100099FF0121880600F053F94FF6FF74ADF8DF
:10202000004000258DF803506946124800F040F842
:10203000ADF800408DF8035069460F4800F038F8BD
:10204000ADF800408DF8035069460C4800F030F8B8
:10205000ADF800408DF803506946094800F028F8B3
:10206000ADF800408DF803506946064800F020F8AE
:1020700038BD000000080140000C01400010014084
:1020800000140140001C014010B58A0721F0030430
:102090000649120F21440F238C6893409C438C60A7
:1020A0008B68904003438B6010BD0000000001402E
:1020B000F0B5CC78002204F00F03E40601D58C784B
:1020C00023430C784FF00F0C14F0FF0F4FF0010E6C
:1020D0001BD005680E880EFA02F42640A64210D1E5
:1020E00096000CFA06F725EA070703FA06F5CE78FC
:1020F0003D43282E02D0482E02D002E0446100E089
:102100000461521C082AE5D305600A88FF2A1CD9FD
:102110004468002202F108060EFA06F50E882E40E9
:10212000AE420ED196000CFA06F7BC4303FA06F74E
:10213000CE783C43282E00D14561CE78482E00D180
:102140000561521C082AE5D34460F0BD30B50F2963
:1021500020D800281ED06AB901248C40022B02D05E
:10216000032B03D006E0C568A54302E0C56802233F
:102170002543C560082901D3001D0839046889007A
:102180000F258D40AC43046042EA83028A40016817
:102190000A43026030BD30B50F2920D800281ED078
:1021A0006AB901248C40022B02D0032B03D006E035
:1021B000C568A54302E0C56802232543C560082918
:1021C00001D3001D0839046889000F258D40AC43F8
:1021D000046042EA83028A4001680A43026030BD1B
:1021E00030B50F2920D800281ED06AB901248C40B0
:1021F000022B02D0032B03D006E0C568A54302E002
:10220000C56802232543C560082901D3001D08398C
:10221000046889000F258D40AC43046042EA8302C4
:102220008A4001680A43026030BD30B50F2920D8CA
:1022300000281ED06AB901248C40022B02D0032B47
:1022400003D006E0C568A54302E0C5680223254324
:10225000C560082901D3001D0839046889000F25CD
:102260008D40AC43046042EA83028A4001680A431D
:10227000026030BD30B50F2920D800281ED06AB9C1
:1022800001248C40022B02D0032B03D006E0C5684A
:10229000A54302E0C56802232543C560082901D390
:1022A000001D0839046889000F258D40AC43046087
:1022B00042EA83028A4001680A43026030BD00009E
:1022C00030B54FF00044A04271D96FF07F4303EA6C
:1022D000D01300F07F04200904F00F04052B01D077
:1022E000850001E04508AD00AC40062B14D2DFE8C4
:1022F00003F00305080B0E11BE4A0DE0BD4A121D86
:102300000AE0BC4A083207E0BA4A0C3204E0B94A93
:10231000103201E0B74A143270B1012815D00228FA
:102320001CD0032823D004282AD005282CD0062826
:102330002ED0072830D033E01068052B02D020F0D3
:102340000F002CE020F0030029E01068052B02D0DC
:1023500020F0F00023E020F00C0020E01068052BB6
:1023600002D020F470601AE020F0300017E010680E
:10237000052B02D020F4704011E020F0C0000EE0E8
:10238000106820F470200AE0106820F4700006E065
:10239000106820F0706002E0106820F0704010605B
:1023A000012902D110682043106030BDFFE7914A37
:1023B000203AB0F5805F0DD043DC402871D01ADCA4
:1023C000042807D007DC8C4BA0426BD001286AD0D0
:1023D0000228EAD17BE0082879D0102875D030286F
:1023E000E3D1506820F0300050600129DDD1506801
:1023F00040F03000F1E0B0F5407F67D011DCC0283C
:1024000077D0B0F5807F75D0B0F5007FCDD1506822
:1024100020F4407050600129C7D1506840F400702A
:10242000DBE0B0F5006F6FD0B0F5406FBDD1506804
:1024300020F4406050600129B7D1506840F44060FA
:10244000CBE0B0F5002F42D014DCB0F5803F3ED099
:1024500009DCB0F5804F76D0B0F5C04F74D0B0F540
:10246000004FA2D133E0B0F5003F30D0B0F5802F5F
:102470009BD12CE0B0F1806F67D015DCB0F5801FE8
:1024800025D0B0F1807F75D0B0F1007F8DD150683C
:1024900020F0E0605060012987D1506840F0007062
:1024A0009BE03CE027E01BE0B0F1884F77D0B0F133
:1024B000904F8ED1D06920F04060D061012988D141
:1024C000D06940F00060D0616FE71EE048E05368DB
:1024D000834353600129F7D151680143516064E798
:1024E0005068184050600129EED1506840F001005A
:1024F00073E01EE02AE05068184050600129E3D1E3
:10250000506840F0004068E035E0506820F030004E
:1025100050600129D8D1506840F010005DE050684B
:1025200020F0C00050600129CED1506840F040003A
:1025300053E0506820F0C00050600129C4D15068B9
:1025400040F0C00049E020E02AE03DE0506820F47F
:10255000407050600129B7D1506840F480703CE071
:10256000506820F4407050600129ADD1506840F4AB
:10257000407032E01EE0506820F440605060012955
:10258000A2D1506840F4006027E0506820F4C040B9
:102590005060012998D1506840F480401DE01EE051
:1025A000506820F4C040506001298DD1506840F43B
:1025B000C04012E0506820F0E060506001298ED1E8
:1025C000506840F0807008E0506820F0E060506093
:1025D000012984D1506840F080605060E5E6D06900
:1025E00020F04060D0610129F8D1D06940F08060CE
:1025F00069E7000020000140FEFFFF7F4161704756
:102600004FF6FF710180022181700421C170704773
:102610002DE9F8430746007800EB400101EB00107C
:10262000C4B204F11300C5B25D2D00D95D251D486B
:10263000DFF87480B0F81910ADF800101949C07EA9
:1026400018318DF8020008798946C0F397061FE01B
:1026500008EB04017A7891F81A11114216D008EBB0
:10266000440099F8011090F8600010FB06F001EBAF
:1026700050108DF8000000980DF008F9C0F30743E2
:10268000C2B2C0F3072120460DF01AFA641CE4B26E
:10269000AC42DDD35D2D02D20120BDE8F8830020DD
:1026A000FBE70000400A0020548201082DE9F843AE
:1026B0000746007800EB400101EB0010C4B204F1C2
:1026C0001300C5B25D2D00D95D251C48DFF8708070
:1026D000B0F81910ADF800101849C07E18318DF807
:1026E000020008798946C0F397061EE008EB040152
:1026F0007A7891F81A11114215D008EB440099F834
:10270000011090F86100000916FB00108DF8000020
:1027100000980DF0BBF8C0F30743C2B2C0F3072125
:1027200020460DF0CDF9641CE4B2AC42DED35D2D41
:1027300002D20120BDE8F8830020FBE7400A002018
:102740005482010870B5154E75687478284605F0F6
:102750002BF813490A2C8C7003DD0A2094FBF0F44B
:1027600001E004B101240F480088400500D44C70FA
:102770007278502A01DB04200CE03C2A01DB0320A4
:1027800008E0282A01DB022004E0142A01DB0120F2
:1027900000E000200870A8B270BD0000D809002039
:1027A00018000020AC0A00202DE9F84F06460078FA
:1027B00000EB400101EB0010C4B204F11300C5B2FC
:1027C0005D2D00D95D252148B0F81910ADF8001035
:1027D000C17E8DF802101D49008A18310979C90897
:1027E0004843C0F307200FF08BFC803840B204F060
:1027F00045F94006000E00EB40009DF80010C0F3C4
:10280000971008448DF80000009807F0CFF9104F9A
:10281000C0F3072A00F0FF09C0F307480DE038199C
:10282000717890F81A01084205D043464A4651464D
:1028300020460DF045F9641CE4B2AC42EFD35D2DA7
:1028400002D20120BDE8F88F0020FBE7400A0020FB
:1028500054820108014906F0DDBD0000612800082E
:1028600037B510460C460FF04BFC0E4A803802EB91
:10287000440191F86010084440B204F0FFF84006AB
:10288000000E00EB40009DF80010C0F397100844C4
:102890008DF80000BDF800009DF8021040EA0140EC
:1028A0003EBD000054820108014906F0B3BD00009E
:1028B000B528000807B50D4800EB410090F860000E
:1028C000801A40B204F0DAF8C0B200EB40009DF884
:1028D0000010C0F3571008448DF80000BDF8000048
:1028E0009DF8021040EA01400EBD0000548201082C
:1028F00070477047704770470904090C08D0C0F34F
:102900000721FF2902D1C0B2FF2801D00020704763
:10291000012070470904090C08D0C0F30721FF29E2
:1029200002D1C0B2FF2801D00020704701207047BB
:1029300002494CF6CC40086070470000003000406F
:1029400001490860704700000030004002494AF623
:10295000AA2008607047000000300040014948602C
:102960007047000000300040014988607047000057
:1029700000300040F0B500230A24302537261F46DA
:1029800010E0B4EB107F02D905EB107C01E006EB00
:10299000107C01F813C001EB430C00015B1C8CF8A8
:1029A0000170DBB29342ECD3F0BD000070B5064677
:1029B000807860B1307800EB400101EB0010C4B2C8
:1029C00004F11300C5B25D2D22D95D2520E0144825
:1029D0001021008A84B21248183000790CF082FB72
:1029E0004443200A0521B0FBF1F201FB1200A8B913
:1029F000FDF7DAFC5D2190FBF1F201FB120031469C
:102A000007F036FE0AE03146204607F031FE641C2E
:102A1000AC42F8DB5D2D01D2012070BD002070BDFD
:102A2000400A0020A838172846D2DFE800F00C0E34
:102A30001012141A1E201C2326292C2F3235383B45
:102A40004216183E4000E2207047E9207047EA2015
:102A50007047B5207047B6207047B3207047B42048
:102A60007047B7207047CC207047CD20704740F2A8
:102A7000831070474FF4C57070474FF4C9707047AA
:102A80004FF4CA70704740F22120704740F2232073
:102A900070474FF40970704740F22520704740F2AC
:102AA0002620704740F2272070476F207047702023
:102AB000704740F22A20704700207047A838172836
:102AC00046D2DFE800F00C0E1012141A1E201C2350
:102AD00026292C2F3235383B4216183E4000E22082
:102AE0007047E9207047EA207047B5207047B6204C
:102AF0007047B3207047B4207047B7207047CC2090
:102B00007047CD20704740F2831070474FF4C57076
:102B100070474FF4C97070474FF4CA70704740F265
:102B20002120704740F2232070474FF4097070470E
:102B300040F22520704740F22620704740F22720BF
:102B400070476F2070477020704740F22A2070470E
:102B5000002070470146024A002006F007BD000031
:102B600029350008F8B50E4607460B4C0EE037F83D
:102B700002092025A0810121204600F090FC10B917
:102B80006D1EADB2F7D2A089ADF80000761EEED270
:102B9000BDF80000F8BD00000030014070B50E4DDA
:102BA000064620240221284600F079FC10B9641E54
:102BB000A4B2F7D23146284600F07AFC012128461B
:102BC00000F06DFC10B9641EA4B2F7D22846BDE82F
:102BD000704000F06BBC000000300140FEE7704721
:102BE00030B50F23C27801780125F2B1144A12687A
:102BF00001F1E02102F4E062C2F5E062120AC2F1E2
:102C00000404D3404278A24084781C40144322013B
:102C100081F80024007800F01F018D4040098000F9
:102C200000F1E020C0F8005130BD01F01F008540E8
:102C30004809800000F1E020C0F8805130BD00005C
:102C40000CED00E070B5012009F08EFF094C0A4E32
:102C50000025E560356065604FF47A7009F084FF07
:102C600035606068A06060686421B0FBF1F0656069
:102C7000E06070BD780000203C090020F0B585B010
:102C8000684600F08DF91B48009C1C4A04601A48F5
:102C90001B4900230460B4FBF2F00880B4FBF2F09F
:102CA0001849484304EB8010010C0004FDF72EFB8B
:102CB00015490880154800680746FDF73DFE0546A2
:102CC0000E462046FDF738FE2A463346FDF753FDF3
:102CD00000220F4BFDF7C1FDFDF73BFE0D49401EE5
:102CE00008604FF47A70B0FBF7F00B49087005B03C
:102CF000F0BD0000000000200809002040420F0045
:102D00000C090020F7C2FFFF0E090020B460010883
:102D100080842E4110090020140900207047000013
:102D2000014908627047000000000E420748016830
:102D300041F004010160016841F0020101600448B2
:102D4000016841F00401016030BF7047007000402D
:102D500010ED00E00B4B1A6822F0030202431A60E8
:102D60000948026842F004020260012907D040BF0E
:102D700020BF20BF016821F004010160704730BF0F
:102D8000F8E700000070004010ED00E0014906F097
:102D90006BBC0000992D00080FB50F4800EB4300F5
:102DA00090F86130203B13FB02F290F8600070381D
:102DB00010FB012040009DF80010C21700EB52608C
:102DC00001EBE0108DF80000BDF800009DF8021046
:102DD00004B040EA014000BD54820108014906F0F8
:102DE00019BB0000E92D000837B50D48154600EB6A
:102DF000410494F861006034203840B203F03EFE94
:102E00002178491B08449DF8001008448DF8000003
:102E1000BDF800009DF8021040EA01403EBD0000F0
:102E200054820108014906F01FBC0000312E000841
:102E30007FB51348154600EB43040E4614F8600FA7
:102E4000703840B203F01AFEC0F1380010FB06F1F2
:102E50006078203810FB051000EB40009DF8001052
:102E6000C21700EB526001EBE0108DF80000BDF8D6
:102E700000009DF8021004B040EA014070BD00005F
:102E80005482010870B50646807860B1307800EB56
:102E9000400101EB0010C4B204F11300C5B25D2D76
:102EA00022D95D2520E014481021008A84B21248FE
:102EB000183000790CF016F94443200A0A21B0FBBF
:102EC000F1F201FB1200A8B9FDF76EFA5D2190FB4B
:102ED000F1F201FB120031460CF052F90AE03146E2
:102EE00020460CF04DF9641CAC42F8DB5D2D01D29C
:102EF000012070BD002070BD400A0020044A002956
:102F0000516901D0014300E08143516170470000E5
:102F100000100240044A0029D16901D0014300E0B9
:102F20008143D1617047000000100240044A00292B
:102F3000116901D0014300E0814311617047000035
:102F400000100240044A0029916901D0014300E0C9
:102F5000814391617047000000100240044A00293B
:102F6000D16801D0014300E08143D1607047000087
:102F7000001002400248416A41F08071416270478E
:102F80000010024001490860704700003C044242C2
:102F900002490A6A02430A627047000000100240B8
:102FA00070B5564B00215A68554C12F00C0203D0F4
:102FB000042A01D0082A01D004606CE0DA6A02F029
:102FC0000042B2F1004F09D059684E4A11405A6888
:102FD00011F0C04F02F4803446D04BE0DA6ADC6A6C
:102FE00002F0E06204F47F46DC6A04F0F005DC6A7B
:102FF000B2F1407F04F0070415D007DC6AB1B2F1EA
:10300000807F0CD0B2F1007F12D10AE0B2F1806F64
:103010000BD0B2F1A06F0BD109E0042108E006212A
:1030200006E0082104E00C2102E0102100E0192153
:10303000062C04D2DFE804F0030507090B0D01227A
:1030400008E0022206E0042204E0082202E0102246
:1030500000E02022340A14FB01F12C0914FB02F2D7
:10306000B1FBF2F1284A14E0C1F383420F2A01D0E8
:10307000022200E00122302505EA5165C1F38341B7
:103080000D43511914B15A68920301D51F4A00E04B
:103090001B4A5143016059685A68C1F302111C4C24
:1030A000120601D5615C00E000210268CA4042605E
:1030B00059685D68C1F301216D0501D5615C00E0CF
:1030C000002122FA01F1816059685D68C1F3C121D4
:1030D000AD0401D5615C00E00021CA40C2605968BE
:1030E0005B68C1F38131DB0001D541F00401084B7D
:1030F0000833595CB2FBF1F1016170BD0010024070
:103100000024F40000003C6040420F0000127A00EE
:1031100008000020034600205909094A01290AD065
:1031200002290AD0516A03F01F02012393400B4287
:1031300000D0012070471168F5E7116AF3E700003D
:10314000001002407047000001490860704700000D
:10315000800442420E48016841F00101016041686B
:103160000C4A1140416001680B4A1140016001683E
:1031700021F4802101604168064AD2431140416038
:103180004FF41F018160016B044A114001637047D5
:10319000001002400000FFE8FFFFF6FE00FFFEFE09
:1031A00005490128486D03D020F03000486570477C
:1031B00040F03000FAE7000000100240034A516876
:1031C00021F00C6101435160704700000010024083
:1031D000704700002DE9F84F0646007800EB4001EB
:1031E00001EB0010C4B204F11300C5B25D2D00D98B
:1031F0005D251548B0F81910ADF80010C07E8DF8A7
:10320000020000980CF042FB104FC0F3072A00F0B8
:10321000FF09C0F307480DE03819717890F81A01DA
:10322000084205D043464A46514620460CF048FC29
:10323000641CE4B2AC42EFD35D2D02D20120BDE8A4
:10324000F88F0020FBE70000400A002054820108AC
:103250000146024A002006F089B900005D340008EA
:10326000014906F01DB900001534000810B50446E8
:103270000548012100780BF03BFF2146BDE81040D6
:10328000024A06F073B90000045F00209132000882
:103290001FB500290698184483B200DA494208B2E3
:1032A000002A00DA524211B2FF22B2EB001F01DA0B
:1032B000FF2000E0000100B2B2EB011F01DAFF21A4
:1032C00000E0090109B2884200DD0846184480B2D6
:1032D000FF2800D9FF20C0F1FF00C1B29DF8020015
:1032E0000BF000FFBDF8001004B041EA004010BD33
:1032F0000146024A002006F039B900009132000868
:103300000146024A002006F031B9000045330008AA
:103310000146024A002006F029B90000E9330008FE
:1033200010B504460548012100780BF0E1FE214666
:10333000BDE81040024A06F019B90000045F002001
:10334000453300081FB514460698C01A80B2FF28FE
:1033500000D9FF20482B00D9FF200831112904D3C0
:1033600004F10801112900D3FF20C0F1FF00C1B210
:103370009DF802000BF0B6FE0749E21704EB9272CB
:10338000497801EBA2018DF80010BDF8001004B0DF
:1033900041EA004010BD0000580A0020014906F033
:1033A0007FB80000A933000803B5C1F1FF00C1B226
:1033B0009DF8020011FB00F0010ABDF8000040EA90
:1033C00001400CBD10B504460548012100780BF002
:1033D0008FFE2146BDE81040024A06F0C7B8000043
:1033E000045F0020E93300081FB503EB8301069852
:1033F000084480B2FF2800D9FF20C0F1FF00C1B20D
:103400009DF802000BF06EFEBDF8001004B041EA1A
:10341000004010BD13B5C9B282200BF069FE9DF8C3
:10342000001008448DF80000BDF800009DF802105F
:1034300040EA01401CBD000010B5044605480121CA
:1034400000780BF055FE2146BDE81040024A06F018
:103450008DB80000045F00205D3400081FB5069899
:10346000C01A80B2FF2800D9FF20C0F1FF00C1B20E
:103470009DF802000BF036FE0146BDF8000004B0D6
:1034800040EA014010BD704770470029018802D012
:1034900041F0400101E021F0400101807047024607
:1034A000002012890A4200D00120704780897047AD
:1034B0008181704730B502888B8902F441521B0428
:1034C000838802D543F4807301E023F48073838002
:1034D0000B884C88CD8823438C882C4323430C894C
:1034E00023434C8923438C89C4F30E042343CC89A2
:1034F000234313430380828B22F400628283098A70
:10350000018230BD10B504460548012100780BF05A
:10351000EFFD2146BDE81040024A06F027B8000042
:10352000045F0020293500081FB50698C01A80B234
:10353000FF2800D9FF209DF8001001448DF80010ED
:10354000C0F1FF00C1B29DF802000BF0CBFD0146B7
:10355000BDF8000004B040EA014010BD10B50121E3
:103560000420FFF7EFFC01210820FFF7EBFC01210D
:103570001020FFF7E7FC00BF00BF00BF00BF0A48F4
:10358000D0F8242109493AB9D0F8000120B10848FF
:10359000086000F011F803E00648086000F056F8F3
:1035A000BDE81040FFF76ABB000021420000002088
:1035B0000024F400004495080CB500222148009234
:1035C0000192016841F4803101604FF44053016879
:1035D00001F4003101910099491C0091019911B940
:1035E00000999942F3D10168890328D501210191FD
:1035F00015490A6842F010020A600A6822F00702C0
:103600000A600A680A6041684160416821F46051BB
:10361000416041684160416821F4E0614160416876
:103620004160416821F003014160416841F00101BE
:1036300041604168C1F381010129FAD10CBD0192B9
:103640000CBD000000100240002002401CB500210B
:103650002F4C00910191206840F4803020604FF49D
:103660004052206800F4003001900098401C009007
:10367000019810B900989042F3D12068800344D596
:10368000012001902348016841F0100101600168A8
:1036900021F007010160016841F0040101606068E8
:1036A0006060606820F460506060606840F40050C2
:1036B0006060606820F4E0606060606840F4806092
:1036C00060606068144908406060606840F4E81019
:1036D0006060206840F08070206020688001FCD528
:1036E0000120FFF75DFD606820F003006060606806
:1036F00040F0020060606068C0F381000228FAD1E7
:10370000BDE81C400020FFF74BBD01911CBD00002F
:103710000010024000200240FFFFC01F054910B505
:1037200003480860FFF792FFBDE81040FFF7A6BA14
:103730000044950800000020124810B500681249A6
:10374000124A431A884217D005DC1149401809D0A3
:1037500080180BD108E0981811D0D04206D14FF054
:10376000046001E04FF48000FFF728FD0121BDE86F
:1037700010400803FFF7C2BB4FF44000F4E74FF4DA
:103780000000F1E70000002000D8B80500CA91FE53
:10379000009423FD10B501210C072046FFF7BAFB6A
:1037A0002C4911F8500F40F004020A700021204605
:1037B000FFF7B0FB0020FEF71DFAA0F54851F239E3
:1037C00027D009F0E7FE2448016841F001010160BB
:1037D0004168224A114041600168214A114001605C
:1037E000016821F48021016041681E4A1140416056
:1037F000016B1D4A114001634FF41F018160C16AD2
:1038000041F08061C162FFF7A9FE184960100860AD
:1038100010BD06F079FA01212046FFF77BFB01205D
:10382000FFF77EFA00210846FEF7B6FA0020FFF700
:1038300077FA00212046FFF76DFB09F037FD0C48B1
:10384000006880F308880A480A49001D006848603B
:103850008047FEE700700040001002400C00FFE8C7
:10386000FFFFF6FEFFFF001700FFFEFE08ED00E081
:1038700000ACFF1F00000020F0B504468BB0012112
:1038800040F60500FFF75EFB01214020FEF718FD22
:103890004FF48076ADF8246002258DF82650102074
:1038A0001E4F8DF8270009A93846FEF701FC314666
:1038B0003846FEF7A3FE601E02900020ADF80C0013
:1038C000174EADF8000001908DF80E0069463046A5
:1038D00000F008FA6020ADF810000120ADF81200E9
:1038E00060080690ADF81C5004A9304600F013F9AA
:1038F0008021304600F0DEF92021304600F0E2F968
:103900000821304600F02DF90121304600F0C5F8BD
:103910000121304600F0D8F80BB0F0BD000801409E
:10392000002C014070B501218CB00846FFF7E6FA83
:10393000134D144E80242C803046FDF7C5FE68469A
:10394000FDF77CFE1048CDE900051020029003AA87
:103950000120002182E813000002069080000790F9
:10396000202008900002CDE9090169463046FDF7A4
:103970008DFE01213046FDF749FE0CB070BD000000
:103980003E0000201C000240002C014070B50121C7
:103990008C07204600F0ABF8002844D04121204697
:1039A00000F085F8204C214E4FF0000520780007EC
:1039B00015D507F083FE0023032208213046FEF7C9
:1039C000C5FB1B48C0F8A0510121C0F8A01100F5AB
:1039D000D07000BF00BF0560012005F059F9607884
:1039E000401CC0B26070062800D3657020780106C4
:1039F00007D500F00F0040F00800207009F07CF8B7
:103A000065702078000708D5607807F033FE022340
:103A1000032208213046FEF799FBBDE870400121E2
:103A2000044800F047B870BD3C0000200008014089
:103A300000002142002C014030B50446012185B030
:103A40000846FFF767FA641E029400244FF0804591
:103A5000ADF80040ADF80C4069462846019400F0EE
:103A600041F90021284600F01FF90721284600F0FF
:103A700031F900220121284600F045F81C208DF87C
:103A800010008DF811408DF8124001208DF81300C0
:103A900004A8FFF7A5F805B030BD0029018802D0C1
:103AA00041F0800101E021F0800101807047C943AD
:103AB000018270470029018802D041F0010101E034
:103AC00021F0010101807047002930F8441F02D025
:103AD00041F4004101E0C1F30E0101807047002A6A
:103AE000828901D00A4300E08A43828170470246FE
:103AF0000020138A92890B4202EA010202D0002AB6
:103B000000D001207047002A828901D00A4300E0DA
:103B10008A438281704730B5028C22F00102028410
:103B2000038C8588028B25F4407522F073040A8883
:103B3000224323F002048B8923434C881C43CB8906
:103B400024F00804234323F004048B8823430C8AC5
:103B50002C434D8A25438580028389684163038411
:103B600030BD028B22F008020A430283704770B511
:103B7000028C22F010020284048C8688028B0B785F
:103B800022F4E6454FF6FF7202EA03232B4324F0AA
:103B900020058C8926F4406602EA04142C434D88E3
:103BA00002EA05152543CC8925F0800502EA0414B4
:103BB0002C4324F040058C8802EA04142C430D8A1F
:103BC00002EA850535434E8A02EA86022A4382804C
:103BD000038389688163048470BD00210180418072
:103BE000818081608181C1810182418270470000B2
:103BF000264910B5884202D10121C4143BE0B0F13E
:103C0000804F09D0224988420DD101210220FFF7BF
:103C10008DF90021022019E001210846FFF786F9FD
:103C20000021012012E01B49884206D10121042015
:103C3000FFF77CF90021042008E01749884209D1E8
:103C400001210820FFF772F900210820BDE810408B
:103C5000FFF76CB91149884202D10121CC040AE076
:103C60000F49884202D101210C0504E00D49884228
:103C70000AD101214C052046FFF770F92046BDE826
:103C800010400021FFF76AB910BD0000002C014070
:103C90000004004000080040000C0040004C0140BF
:103CA0000050014000540140028922F070020A4392
:103CB00002817047028922F08002028102890A4350
:103CC00002817047828822F07002828082880A43D3
:103CD00082807047028922F00702028102890A432A
:103CE0000281704702880F4B98420BD0B0F1804F91
:103CF00008D00D4B984205D00C4B984202D00C4B8B
:103D0000984204D18B8822F0700213439AB2028049
:103D10008A68C2620A880285897B018601218182C4
:103D200070470000002C01400004004000080040E3
:103D3000000C00404FF6FF718160002101808181FD
:103D400041608173704700002DE9F04F8046007894
:103D500085B000EB400101EB0010C5B205F1130086
:103D6000C6B2602E00D9602698F8020040B1002249
:103D7000114610460BF0ACFE60213E48FCF73FFBBD
:103D800098F8000068B93C4C60890EF073FE192861
:103D900001D3012000E00020607210B10EF084FE1B
:103DA00060810DF1040A5AE0062195FBF1F001FB58
:103DB000105095FBF1F101F0FF092E49C0B201EB63
:103DC0000011039111F80910009101AA49460BF066
:103DD00039FE0024049034E01AF804102748085CE7
:103DE00098F8011008422AD0552100980BF080F96C
:103DF000DFF884B0C0F1AA000BF1180B60F30707DD
:103E00009BF80200009960F30F27AA200BF06AF9D3
:103E1000AA3800EB4000C1B29BF8030011FB00F090
:103E2000010A384661F317400BF030FDC0F3074339
:103E3000C2B2C0F307211AF804000BF041FE641C63
:103E4000E4B204988442C7D30B48407A30B10121D0
:103E500000980BF04DF9039901F809006D1CB5426B
:103E6000A2DB602E03D2012005B0BDE8F08F002058
:103E7000FAE70000A45E0020400A00206E830108DB
:103E800070B51C4C06460025B4F8CC20B4F8CE0022
:103E9000824228D000EB80008A1E14F82050954200
:103EA00000DB8D1E04EB80012A463046491CFCF7DE
:103EB0008DFA70190D2101700A264670B4F8CE00F3
:103EC000142100EB800004EB8000AD1CFCF797FA96
:103ED000002024F8C80FE088401CB0FBF6F106FB78
:103EE0001100E08003E034F8C80F401C2080284611
:103EF00070BD00001C5300202DE9F05F1A4E002514
:103F0000DFF86890DFF868A0DFF868B02F467468C3
:103F100058212046FCF773FA307884F82000C4E971
:103F200012A95BF82500022D804611D2002108F06D
:103F30009FFE0D49A060091F495D617660B1D8F808
:103F40000400206108482146103008F07DFF6060C1
:103F5000A06808B1606800B97F1C6D1C0836022D8E
:103F6000D5D33846BDE8F09FE8620108813F0008DC
:103F7000793F0008900900204FF4804108F04CBFC1
:103F80004FF4005108F048BF70B50F4C0D4D202183
:103F90002046FCF734FA0021284608F069FEA060AC
:103FA00060B10E206076686820612146A5F114009A
:103FB00008F04AFF606008B1002070BD4FF0FF308C
:103FC00070BD00003C630108B4500020704770478A
:103FD00003480068002801D000F016BA70470000BE
:103FE0002400002003484068002801D000F00CBAEB
:103FF0007047000024000020704770470EF0ECBEB0
:104000005356332E302E30204D6172202036203210
:104010003032342030303A34353A3138000000291B
:10402000818902D041F4005101E021F400518181E5
:104030007047002A828A01D00A4300E08A438282C4
:1040400070470246002012880A4200D001207047C3
:1040500010B5C1F3421301F01F040121A140012B4F
:1040600007D0022B07D01430002A026805D00A437B
:1040700004E00C30F8E71030F6E78A43026010BD28
:104080008088C0F308007047C1F308018180704741
:104090004FF41651016000218180C18001810C2202
:1040A0004281818170470000014800F0B5BA0000EC
:1040B000204600204FF48020FDF7B6BE10B50B4619
:1040C0000C0601F07F0202EB820100EBC10102D578
:1040D00001F58E7101E001F55D710A70DA094A702F
:1040E00001F04EF9002010BD10B50A0604D501F00C
:1040F0007F0101F03FFA01E001F01EFA002010BD3F
:1041000057512D3230362D41312D38314B45592DF7
:10411000312D554254472D322D56312E302D31340C
:10412000323300002DE9F041DFF814810646434C9C
:10413000D8F810000F46322510B10020BDE8F081FC
:104140007078404940F0800070700A88520502D5AE
:1041500040F0400070700888800503D5707840F00A
:104160002000707003F012FC98F8040000B90A25D2
:10417000B4F8C8004FF00A0802280BD3D0212F480A
:10418000FCF73DF906E0012008F0EEFC6D1E2D0461
:104190002D0C0AD0B4F8CC00B4F8CE10401CB0FB03
:1041A000F8F208FB12008842EDD0B4F8CC00454686
:1041B000411CB1FBF5F208FB1212B4F8CE108A4292
:1041C0001CD0132F00DD132700EB8000FAB204F897
:1041D0002020B4F8CC00314600EB800004EB8000D6
:1041E000401CFCF7F3F8B4F8CC0024F8CA0F401CCC
:1041F000B0FBF5F105FB1100608017E0884215D097
:10420000B4F8CA000A2811D2132F00DD132700EBDF
:104210008000FAB204F82020B4F8CA00314600EB5E
:10422000800004EB8000401CFCF7D0F80649012018
:1042300048730103092004F0C4F97EE71C530020F1
:10424000C4090020AC0A00201452002030B50446F6
:10425000008A85B00D464CF6FF710840E98801439D
:104260002182A0894EF6F3110840A9882A891143BA
:104270006A8902431143A181A08A4FF6FF41084099
:10428000A9890143A1826846FEF78AFE1948844243
:1042900001D1039800E00298A189090400EBC00154
:1042A00001EB0010296801D5490000E08900B0FB4E
:1042B000F1F06422B0FBF2F109010B096FF018056F
:1042C0006B4300EB8300A3891D044FF0320306D536
:1042D00003EBC000B0FBF2F000F0070005E003EBD9
:1042E0000010B0FBF2F000F00F000843208105B091
:1042F00030BD0000003801400A4610B5090602F042
:104300007F0306D503EB830100EBC10101F58E713C
:1043100005E002EB820100EBC10101F55D710024B3
:104320008C700B70D2094A7001F011F8002010BD9A
:1043300070B50D460E0601F07F0404EB840100EB1E
:10434000C10102D501F58E7101E001F55D71ED0944
:104350000C704D708A60CB7000D0CC80022B01D1E4
:1043600000220A7100F0CAFF002070BD10B511F0E4
:104370007F0404EB840100EBC101C1F880234FF0FE
:104380000002C1E9E23281F8752381F8744301F536
:104390005D7103D001F026F8002010BD00F063FF2E
:1043A000FAE70069002261F30A1201681143016013
:1043B00070470A4610B5090602F07F0306D503EBE5
:1043C000830100EBC10101F58E7105E002EB820172
:1043D00000EBC10101F55D7101248C700B70D209F5
:1043E0004A7000F0E7FF002010BD000001490320E3
:1043F00008707047B00A00207047704770477047D8
:10440000B0CE51A110100E172DE9F04745680446B3
:104410002E88B0F81680B00640F2244940F2255AA2
:104420004FF0020724D54FF6DF702880A06808BB44
:104430006068FFF725FEC1B2E08AA28A904203D2EB
:104440002369421CE2821954E08AA18A88420FD370
:10445000002251466068FFF7FBFD6770A06A38B123
:10446000002249466068FFF7F3FDA16A206A884789
:10447000A06838B1FDF7EFF8E082A18A884201D840
:10448000081AE08216F4907F03D1A068C0B1E08AD8
:10449000B0B14FF6DF6028806078012810D0E18A43
:1044A00041450DD001206070012249466068FFF748
:1044B000CFFDA06820B1002251466068FFF7C8FD1B
:1044C000F00619D54FF6EF70288000224946606843
:1044D000FFF7BEFDE08A40B16770A16A61B1206A52
:1044E0008847204601F03EFC06E00420607001226F
:1044F00051466068FFF7ACFD16F0C00F22D04FF6B2
:104500003F702880E06800281CD1E08BA18B884296
:1045100006D2A269411CE183115C6068FFF7B4FD1B
:10452000E08BA18B88420DD3A770002240F2277147
:104530006068FFF78DFDE16A002903D0206ABDE8BD
:10454000F0470847BDE8F08770B511F07F0404EB31
:10455000840100EBC1014FF0010581F81D5181F884
:104560001C41C1F82821C1F82C2101F58E714FF0B2
:104570000002C1E9053203D000F034FF002070BD15
:1045800000F071FEFAE770B5044601F05CF8012016
:10459000002384F8120184F814311A46402510E0F3
:1045A00002EB820104EBC10181F81D0181F81C219D
:1045B000A1F8222181F81F31C1E94953521CC1F8E9
:1045C000303161789142EBD8002010E000EB80019F
:1045D00004EBC10181F8753381F87403A1F87A0303
:1045E00081F87733C1E9DF53401CC1F88833617823
:1045F0008142EBD8204600F013FE204600F04EFD2D
:104600000021204601F070F8204600F081FD204690
:10461000BDE8704000F088BF2DE9F843064600244D
:1046200000F0DFFF00287DD0304600F0E3FF051EDC
:1046300079D096F8121103204FF00008042906D112
:10464000D6F8181119B186F81201C6F81881280396
:1046500003D5304601F0B2F90446680303D530466D
:1046600001F056F90443A80702D5F1680220486119
:10467000404F002D16DAB07A28B1D6F80C01016847
:1046800021F0030101603069416821F001014160BE
:104690003868816930468847F1684FF000404861CA
:1046A00044F00104280529D58DF8008096F8120100
:1046B0008DF8000038684169304688473069806865
:1046C000F2684FF400615161B17AA9B1C00713D00B
:1046D00096F8150101280FD19DF8000003280BD191
:1046E000D6F80C01016841F001010160D6F80C0117
:1046F000016841F00301016044F00104280708D576
:104700003868C16830468847F1680820486144F03D
:104710000104E80603D5304601F08AF90443E804B1
:1047200006D501E022E022E0304601F0BFF9044363
:10473000A80403D5304601F045F80443E80209D542
:104740003868C16930468847F1684FF48010486185
:1047500044F00104A80209D53868016A3046884748
:10476000F1684FF40010486144F001042046BDE8B0
:10477000F8830000080B002010B50A46024903A088
:1047800000F011FA004810BD106000204B657962FE
:104790006F617264000000001220088000487047BA
:1047A000448C010810B50EF012FE10BD7FB501213A
:1047B0000420FEF7C7FB01210846FEF7C3FB01A852
:1047C000FDF71EFF4FF40070ADF804000420234CE9
:1047D0008DF8070001A92046FDF76AFC01A8FDF746
:1047E0000FFF2115ADF8041048218DF8071001A91D
:1047F0002046FDF75DFC43208DF8000001248DF874
:10480000014003208DF802008DF803406846FEF752
:10481000E7F9A5042846FDF707FB00208DF80C00FA
:1048200008208DF80D0002958DF80E4002A8FDF7C6
:1048300087FB2846FDF7F8FA2A208DF800008DF84E
:10484000014005208DF802008DF803406846FEF710
:10485000C7F92846FDF7E8FA7FBD000000080140CF
:1048600010B50A46024903A000F09DF9004810BDAA
:104870001060002048494420496E74657266616387
:10488000650000000420088000487047408C010843
:1048900010B50A46024903A000F085F9004810BD92
:1048A00010600020554245535400000010B50A46E0
:1048B000024903A000F077F9004810BD1060002005
:1048C0007A6F6F6D373520776972656C6573730029
:1048D00010B51A2008800A480168001D0468001DF0
:1048E0000068081809D008220649FEF743F8054970
:1048F000042210312046FEF73DF80248801E10BD0C
:10490000E8F7FF1F220B002010B5D0F8E42552680D
:104910009047002010BD10B504468021FFF749FDE7
:1049200000212046FFF745FD2046BDE8104000F07D
:10493000DFBC10B5134600240A462146FFF716FDDA
:10494000204610BD10B5134600240A462146FFF745
:10495000FBFD204610BD10B5C0F894230323C0F81A
:10496000902380F81131134600240A462146FFF7B0
:10497000FDFC204610BD70B505460024052085F8D5
:1049800011012346224621462846FFF7EFFC284620
:1049900000F0AEFC204670BD10B5C0F83C210223EB
:1049A000C0F8382180F81131134600240A46214608
:1049B000FFF7CAFD204610BD70B50546002404204F
:1049C00085F811012346224621462846FFF7BCFD03
:1049D000284600F08DFC204670BD000070B50446EE
:1049E00041B1D4F8E40542697AB394F8120103287E
:1049F00044D045E094F81101002604F58E75022894
:104A000031D1E969A868814207D9081AE86182B200
:104A10002046E968FFF796FF10E0296AB1FBF0F243
:104A200000FB121292B9814210D3686A81420DD202
:104A3000002211462046FFF785FF6E6200231A46CA
:104A400019462046FFF792FC0DE016E0D4F8E40585
:104A5000C16829B194F81201032801D12046884782
:104A60002046FFF788FF94F81601012808D1054871
:104A700000682169486084F8166101E0204690478B
:104A8000002070BD0C0B002010B5044641B1D4F8D5
:104A9000E405826932B394F81201032823D024E09C
:104AA00094F8111104F55D7003291ED18268C16963
:104AB00091420AD9891AC161914200D311468AB242
:104AC000C1682046FFF735FF0FE0D4F8E40501691F
:104AD00029B194F81201032801D1204688472046C5
:104AE000FFF76AFF01E020469047002010BD38B56F
:104AF0000446C888ADF8000048880D46010A04291C
:104B00004CD2DFE801F04B020713D4F8EC15A07883
:104B10000A6830E0D4F8E415A0788A6A69469047BC
:104B2000014602204870C4F8F01527E0C0B20628FC
:104B300034D2DFE800F003080D12171CD4F8EC158E
:104B4000A0784A6817E0D4F8EC15A0788A6812E0DB
:104B5000D4F8EC15A078CA680DE0D4F8EC15A0786C
:104B60000A6908E0D4F8EC15A0784A6903E0D4F8A3
:104B7000EC15A0788A69694690470146BDF80000A7
:104B800000280AD0EA88002A07D0824200D90246CB
:104B9000ADF800202046FFF7FFFE38BD294620462D
:104BA000FFF7B9FE38BD70B5002300281DD00446BC
:104BB000002502E06D1CEDB2641C2678002EF9D1B0
:104BC000022404EB45041480CC545B1C0322CA5419
:104BD00000245B1C06E0CA545B1CDAB28C54521CE5
:104BE000D3B2401C0278002AF5D170BD2DE9F04106
:104BF0001D46174688460446069EFFF7FFFB04F253
:104C0000E452414682E8E0002046FFF7BCFCD4F8BD
:104C1000E8050068BDE8F041004710B5D0F8E4159C
:104C2000096A8847002010BD10B5D0F8E415496A1C
:104C30008847002010BD90F8CC250A7090F8CD254B
:104C40004A7090F8CE2590F8CF3502EB03224A80C7
:104C500090F8D02590F8D13502EB03228A8090F8A5
:104C6000D22590F8D33502EB032292B2CA800121FB
:104C7000C0F8402180F81111704710B50446D0F8F3
:104C8000E80500698047032084F81201002010BD68
:104C900010B50023044640221946FFF749FB0023C4
:104CA000402280212046FFF743FB012084F81201B7
:104CB000D4F8E815A07849688847002010BD10B5E1
:104CC000D0F8E415C96901B18847002010BD10B5BE
:104CD0000446D0F8E405026820469047D4F8E80579
:104CE00080688047002010BD70B50A461A4D89784B
:104CF00004462970012905D894F81201022807D02A
:104D000003280CD02046BDE870401146FFF703BED3
:104D1000A1B184F81011032084F812010BE091B1C5
:104D200094F81001884209D001462046FFF7ECFDB7
:104D3000297884F810112046FFF7C9FF2046BDE806
:104D40007040FFF739BE022084F8120184F8101178
:104D50002046FFF7D9FDF1E7100B002010B50446FF
:104D60004888012201280FD0022831D1888810F00C
:104D7000FF0F2DD121694968000A06281CD2DFE8FF
:104D800000F01B1B0B0F1317C4F81821D4F8E4050F
:104D900082682046904716E021F0700120310EE035
:104DA00021F0700130310AE021F07001403106E05D
:104DB00021F07001503102E021F0700110310548FE
:104DC000016084F816212046BDE81040FFF7F4BDCD
:104DD00010BD00000C0B00201CB504466946FFF70F
:104DE0002AFF9DF8002012F01F010AD001290DD0E2
:104DF000022910D002F080012046FFF7DAFA0020E5
:104E00001CBD6946204600F00BF8F8E769462046CD
:104E100000F0FAF8F3E76946204600F07DF8EEE787
:104E20002DE9F0414B780027032201260A2B42D2BC
:104E3000DFE803F03B544151410805412A27FFF7C1
:104E400056FE64E004468888C8B9C888B8B988782E
:104E500000F07F0594F81201032810D084F8145153
:104E600029462046FFF79DFA2046FFF7A5FD1DB114
:104E7000022084F812014AE084F8126147E02046DB
:104E800019E0FFF731FF42E0CA88012A13D190F8F8
:104E90001221022A02D0032A0DD102E001221D496B
:104EA00016E0012200F5887112E090F81231022B11
:104EB00004D0032B02D0FFF72EFD28E01549083956
:104EC000CE60D0F8183103B1CA6012490222091D20
:104ED000FFF762FD1BE0FFF741FF18E0044690F882
:104EE0001201022803D0032801D00428C7D1488822
:104EF00001280CD184F812210020C4F81801D4F83C
:104F0000E4058268204690472046FFF755FD384665
:104F1000BDE8F081180B002070B50D4604462878D6
:104F200000260979C0F34110012806D0687878B3CB
:104F300001281ED003283AD106E0D4F8E40529461A
:104F400082682046904732E094F81201022830D05F
:104F5000032828D1688828B921B1802902D02046A9
:104F6000FFF727FAD4F8E4052946826820469047DF
:104F70000FE094F8120102281BD0032813D168888F
:104F8000A8B931B1802904D02046FFF7B5F9E9E787
:104F900003E02046FFF710FD09E094F81201022813
:104FA00007D003280DD029462046FFF7B4FC304631
:104FB00070BD0029FBD08029F9D02046FFF7F9F910
:104FC000F5E7104A08064FF000034FF0010508D539
:104FD00001F07F0000EB800004EBC00090F81E01A0
:104FE00005E001EB810004EBC00090F8760308B106
:104FF000556000E0536003490222091D2046FFF777
:10500000CBFCD4E7100B002070B5054690F81201D8
:1050100000260C4603280DD1207902280AD8D5F89D
:10502000E405826828469047E08830B92846FFF7B3
:10503000C3FC02E02846FFF76EFC304670BD10B599
:1050400090F8121180F81311042180F81211D0F891
:10505000E805C0688047002010BD10B50446D0F8B0
:105060001801002816D020698068A07A28B1D4F8E9
:105070000C01016821F0030101602069416841F0E1
:10508000010141600A2000F006F82069416821F022
:105090000101416010BD03F0F9BD0000F8B5044600
:1050A000C0680026C16841F04001C16037460096E3
:1050B000164D0320FFF7A3F9E068006900907F1CFC
:1050C000AF4216D800980028F3DA0099002041F08A
:1050D000010100910099E2681161E1680A6900929A
:1050E000401CA84202D8009AD207F7D10320FFF74C
:1050F00086F9617A4FF4502009B14FF4E810E16865
:1051000088631420FFF7C7FF3046F8BD400D030049
:105110002DE9F04104460026D0F80C0135462B4617
:1051200006602069016821F4C0510160E07A01281D
:1051300029D10321204600F04EFAE0688021416227
:1051400020202F4660F31F4761F30F07E1688F624D
:1051500007EB174161F30F03E16860F31F43C1F8E8
:10516000043103EB134161F30F03E16860F31F4364
:10517000C1F8083103EB134161F30F0360F31F43E0
:10518000E068C0F80C311021204600F0F3F9204609
:1051900000F0D2F9206905612069456121694FF06D
:1051A000FF3088612069C56100204FF09043FF27E0
:1051B00011E004EB8002D2F818C0DCF800100029DE
:1051C00001DA194600E02946CCF8001091690D611A
:1051D00091698F60401C61788142EAD8002011E01B
:1051E00004EB8002D2F854C0DCF80010002901DA88
:1051F000194600E02946CCF80010516D0D61516D43
:105200008F60401C61788142EAD82069016941F4CD
:1052100080710161204600F06BF93046BDE8F081F5
:10522000C0680022816821F001018160104670474A
:1052300010B501690024896883691A68C1F34101C6
:1052400019B1012901D0022902D0D10AC90202E014
:10525000D10AC902C91C19600069416841F4807112
:105260004160204610BDF0B54B7800264A69012BFD
:1052700017D00B7800EB8304636D1D681B699AB32C
:105280008A684A6162F3060343F40022636D1A617F
:10529000097845F0044200EB8100406D0260304621
:1052A000F0BD83691F681C6932B18D68AA4208D9B4
:1052B00065F306044D6106E024F07F0242F400220B
:1052C00003E062F3060444F400221A6147F004424A
:1052D0001A604A69002AE2D00A78006901219140E7
:1052E000426B0A434263DAE7FFE70A7ACAE7000043
:1052F000406D01490161704718000860F0B506462D
:105300000D7800204F780124AC40034606EB85025F
:10531000012F18D0526D64F31F43146825040DD477
:105320000D8965F30A04CD78897965F3934461F3B7
:10533000995444F0805141F4004111603169CA69C7
:105340001A43CA61F0BD926964F30F03E5E710B533
:1053500003464C780A78002003EB8202012C09D026
:10536000526D1368C97823F40013032904D002296D
:1053700002D003E09269F4E743F08053136010BD5C
:1053800070B50B78044600254E7801229A402846D5
:1053900004EB8301012E09D0496D62F31F400D60BB
:1053A0002169CA698243CA61284670BD896962F36E
:1053B0000F00F4E702464B780978002002EB8101E8
:1053C000012B05D0496D0A6842F400120A6070474B
:1053D0008A691168002901DA41F0804141F4001125
:1053E00011607047F0B54A780B7800240125D1F898
:1053F00014C000EB8303012A1BD05E6D326836694E
:10540000BCF1000F5DD08D680CEB05077F1EB7FB6C
:10541000F5F767F3DC46C6F3C9476F4367F3120637
:10542000C6F312054D615B6D1E61CB78012B4ED02A
:1054300054E09F693A683E69BCF1000F0DD08B685B
:105440006CF312069C44ACF1010CBCFBF3F363F368
:10545000DC46CB78012B05D008E06FF3120665F32C
:10546000DC4603E026F0C04606F100563E61CB78EC
:10547000012B0AD04B697BB10B789D4003695E6BB1
:105480002E435E63CB78012B06D103699B681B0A10
:10549000DB070CD042F080520B7842F0044200EB64
:1054A00083039B691A60CA78012A03D01DE042F089
:1054B0000052F1E78A8A93B20A78C96800F029F9A4
:1054C00013E08F6867F3120665F3DC46ABE74B79B0
:1054D00013B142F0005201E042F08052097842F0EC
:1054E000044200EB8100406D02602046F0BD0000E8
:1054F00010B5C16800238B61C2686FF080415161B3
:10550000C468CA176260C2685161C2680449916187
:10551000C068044A8169914311438161184610BDF6
:105520000008008018383C00C0680022816841F003
:10553000010181601046704738B5002402462146BB
:105540000094009840F0100000900098D368186113
:105550000748D26813690093491C814202D8009B16
:10556000DB06F7D40320FEF74AFF204638BD0000D3
:10557000400D030038B500240346224600940098ED
:1055800040F020000090009861F38A10009000988D
:10559000D96808610748D9680B690093521C824298
:1055A00002D8009B9B06F7D40320FEF728FF204675
:1055B00038BD0000400D030000698068C0F3410061
:1055C00028B1012801D0022803D00220704703200F
:1055D0007047012070470069026861F301020260B0
:1055E0007047C068406910F0010F01D0002070477B
:1055F00001207047C06841698069084070470069B0
:105600008169C069084080B2704700698169C069DA
:105610000840000C704700EB8101496D8968006902
:1056200040690840704710B504460023D21C90081A
:10563000D4F8D02003E0146841F8044B5B1C83428B
:10564000F9D3084610BD70B50123002240248370B1
:105650001546848001290BD1C372082101700421F1
:105660004FF0A04241709115C180022101728372F6
:1056700002F50061C0E9032100210AE002EB4113B9
:1056800003F5106600EB810403F53063A661491C45
:10569000636543788B42F1D802F580614161403106
:1056A000C0F8CC10002108E002EB411300EB8104AC
:1056B00003F5A063491CC4F8903003788B42F3D8FB
:1056C000002108E002EB013300EB810403F5805375
:1056D000491CC4F8D03003788B42F3D802F56062DD
:1056E000C0F80C21284670BD10B5C3680024D868E6
:1056F000012920F0C04201D019B104E042F000526B
:1057000001E042F08042DA603220FFF7C4FC20461C
:1057100010BD30B50546002005EB8202DB1C0446B7
:105720009B08D2F8D02003E051F8045B1560641C9C
:105730009C42F9D330BD2DE9F0470E4601EB8601BE
:1057400000EBC1048046D4E94C01401AD4F824117E
:1057500004F58E74814200D20846C01C08EB86090D
:105760008708D9F81800816920E0451AA068A84286
:1057700000D20546E81C8708ABB2F2B24046E168A9
:10578000FFF7C7FFE0682844E060A0692844A061F3
:10579000D9F8181089696269824207D120780122FC
:1057A0008240D8F81000436B9343436388B2B842F9
:1057B00005D9D4E90501814201D20028D5D10120C3
:1057C000BDE8F08770B586B00646FFF731FD684644
:1057D000FDF7E6FBF068019DC16821F47054C460D8
:1057E0003046FFF7E9FE002103280DD00120B070FC
:1057F0004020B080344835492844884209D224F4F6
:10580000705101F5605156E0B1704FF40070B080F6
:105810002CE02F482F492844884204D224F47051A8
:1058200001F5505147E02C482C492844884204D2C5
:1058300024F4705101F540513DE02948294928449C
:10584000884204D224F4705101F5305133E02648E7
:1058500026492844884204D224F4705101F520518D
:1058600029E0234823492844884204D224F4705173
:1058700001F510511FE0204820492844884204D2F5
:1058800024F4705101F5005115E01D481D492844CC
:10589000884204D224F4705101F5E0510BE01A481B
:1058A0001A492844884224F4705102D201F5C051AB
:1058B00001E001F5A051F068C160F1684FF40050BB
:1058C000486106B0012070BD401E1BFF40420F0022
:1058D00000DC0BFFE0C810002013FBFE20D61300F5
:1058E000003DE7FE006A180000D3CEFE40771B00A3
:1058F000C05BB3FEC091210000CA91FE40AC2700FE
:10590000C01D6AFE40E13300803C36FEE09C410051
:105910002DE9F04106460025FFF771FE074645E0F8
:10592000F80741D03069E9B20369426BCA4006EB1F
:10593000810102F00102896943EAC2128C681440B5
:10594000E1070FD00124426B04FA05F18A43426358
:1059500006EB8500806984601748E9B200684268F8
:1059600030469047200704D506EB8500082480695F
:105970008460E00604D506EB85001024806984600D
:10598000600604D506EB8500402480698460A0078A
:1059900004D506EB8500022480698460200603D5C7
:1059A00029463046FFF7C7FE7F086D1C002FB7D190
:1059B0000120BDE8F0810000080B00202DE9F04136
:1059C00007460024FFF721FE0646DFF8608028E046
:1059D000F00724D0E1B23846FFF71DFE0546C007A8
:1059E0000AD007EB84000125406D8560D8F80000DF
:1059F000E1B2026838469047A80704D507EB840057
:105A00000225406D8560280709D5D8F80000816817
:105A10003846884707EB84010820496D886076087E
:105A2000641C002ED4D10120BDE8F081080B0020B9
:105A300070B50546C068816921F010018161E86890
:105A4000066A06F00F0000EB800005EBC004C6F309
:105A5000434004F55D74072821D2DFE800F02020E0
:105A600004202020150047F6F070064217D0C6F338
:105A70000A1632462846E168FFF7D5FDE068304453
:105A8000E060A069304409E0082205F2CC512846C4
:105A9000FFF7C9FDA069C6F30A110844A061E868D0
:105AA000816941F010018161012070BD70B504462B
:105AB000006900250126416821F001014160294665
:105AC0002046FFF757FD0020FF2206E004EB80018F
:105AD0008B699A60496D8A60401C61788142F5D873
